:1000000000308A00D42B00000A108A100A118207DF
:1000100028340C34013406340A108A100A1182077D
:10002000543465346D3470346534723461347434EE
:1000300075347234613400340A108A100A11820750
:1000400047347234613464346F34733400340A10CA
:100050008A100A1182074434693473346934703465
:1000600061346E3464346F342034633461346C34FE
:100070006F34723400340A108A100A118207433434
:100080006F347234723465346334743461342034C0
:10009000463475346E3463346934F3346E3400346A
:1000A0003230840083130008031964280130F800FB
:1000B000F701F70B5928F80B58284A30F700F70BCF
:1000C0005F286228800B56280034390EF039F7007B
:1000D0000F30080577048800000008146F28081006
:1000E00000348810F0308316880083120815000051
:1000F000081400000808080E0F39B90008100000A5
:10010000081400000808080E0F39B8000810003065
:10011000831688008312390EF700F030F705770850
:100120003804F8007808B800B81B7228361C88100C
:10013000361888140000081100000810370EB800A7
:100140000F30B8053808B900652037080F39B800F6
:10015000B9006520003400308316880083128810AF
:10016000081108100F30B20050200130A4002408FC
:10017000033C031CC3280330B90065200530B200DE
:100180005020A40AB7280230B9006520A401240831
:10019000033C031CD42824080420A500B60125082C
:1001A000B7007120A40AC7280034330BD828DB28F5
:1001B0004030B400DC28B40101303202B407340806
:1001C0008038B500B6013508B70071200034310819
:1001D0000C3A0319F228063A0319FA28023A0319CD
:1001E00000290529B6010130B70071200230B200A4
:1001F00050200B290130B2000230B300D5200B296A
:10020000B6011030B70071200B290130B60031085B
:10021000B70071200B2900348E30F7002508F80054
:100220002408F900FA01F808031D20297908F800CC
:10023000F9010830F702F808031D2029F7012829E1
:100240000310F81B2729F90DF80DF7032029F813DF
:100250008A110A122A2C28080319F029B4002C0844
:100260000319F029B402031C3A297F30B40703189C
:10027000F02940298130B402031CF0290319F02928
:100280003408F700F801F901FA01B3012908B200B6
:10029000B2172A08B1002B08B0001930B4002F089B
:1002A000B002031863290130B10203186329B202B6
:1002B00003186329B30203186329B30AB20AB10A07
:1002C0002F08B00795292E08B10203187E290130A6
:1002D000B20203187E29B30203187E29B30AB20AB8
:1002E0002E08B1072F08B007031C9529B10A031D7A
:1002F0009529B20A031D9529B30A95292D0880383E
:10030000B202031894290130B30203189429B30AE6
:100310002D088038B2072E08B107031C7229B20AD3
:10032000031D7229B30A72297A14B40B9829A329E0
:100330000310B00DB10DB20DB30D0310FA0DF90D90
:10034000F80DB50D4F29351CAB290310F80CF90C2D
:10035000FA0CB50CAE29F7030319F029B51BD72900
:100360000310B00DB10DB20DB30D2F08B00203187C
:10037000C3290130B1020318C329B2020318C329EB
:10038000B302031CE6292E08B1020318CE2901305E
:10039000B2020318CE29B302031CE6292D088038C7
:1003A000B2020318D7290130B302031CE629FA0A66
:1003B000031DE629F90A031DE629F80A031DE629AB
:1003C000F70A0319F029F80CF90CFA0C2908B40003
:1003D0002D08B406B41FEE29F817F429F813F429F0
:1003E000F701F801F901FA018A110A123F2CF7010D
:1003F000F801F901FA01B901BA01BB01BC013808E1
:100400003704360435040319352A2030BD000310A3
:10041000B10DB20DB30DB40DB90DBA0DBB0DBC0DC0
:1004200038083C02031D1E2A37083B02031D1E2A02
:1004300036083A02031D1E2A35083902031C2F2AEA
:100440003508B9023608031C360FBA023708031CF8
:10045000370FBB023808031C380FBC020314F70D1A
:10046000F80DF90DFA0DBD0B072A393084008313FE
:1004700000340408A9002808AB000319CB2A270878
:10048000B4002608B3002508B2002408B100B80162
:10049000B7012030B6008230B50031080319BD2AFB
:1004A000B90035080319BD2AB90703185E2A7F3041
:1004B000B902031CBD2A0319BD2A622A8130B9077B
:1004C0000318BD2A3908F700F801F901FA013208CA
:1004D000BD00BD173308BC003408BB001830B9009C
:1004E000BA013B1C8B2A3808FA07031C7D2AF90A3B
:1004F000031D7D2AF80A0319BA173708F907031CE8
:10050000842AF80A0319BA173608B300B317330858
:10051000F8070318BA17BA0DF80CF90CFA0CBD0C51
:10052000BC0CBB0C0310B90B702A0130F707031881
:10053000BD2AF81BA22ABD0DFA0DF90DF80DF7031F
:100540000319BD2ABD1FB32AFA0A031DB32AF90AEB
:10055000031DB32AF80A031DB32AF80CF90CFA0C90
:10056000F70A0319BD2A3208BA003608BA06BA1FBC
:10057000BB2AF817C12AF813C12AF701F801F901BB
:10058000FA017A08A7007908A6007808A50077087C
:10059000A400AB0B3F2A2708B4002608B3002508A7
:1005A000B2002408B1003108B63CB100FA013208AB
:1005B000B500B2170310B20CB30CB40CFA0CF90C62
:1005C000F80CF70CB10BDA2AB51FF12AF709F80974
:1005D000F909FA09F70A0319F80A0319F90A0319BC
:1005E000FA0A7A08A7007908A6007808A500770813
:1005F000A400A71F082BA903A916A409A509A609E9
:10060000A709A40A0319A50A0319A60A0319A70A28
:100610003B30B0009A30AF00CA30AE00AD010A30B6
:10062000AB0028080319A90A2708B4002608B3005C
:100630002508B2002408B1003008B8002F08B70020
:100640002E08B6002D08B500F7210008A400840A82
:100650000008A500840A0008A600840A0008A70074
:10066000FD308407F708031D482B280A2B020319C5
:10067000482B290803194A2B0F392B020319422B47
:1006800003187A2BA91B7A2B291B4A2B2030762B97
:100690002030A905A91E582BA9122808031DA9035B
:1006A0007708A9002D30B100E7202908F700A9013B
:1006B00028082B02031D662B7708A9002E30B100F5
:1006C000E7202908F7002030A90500303030A91EA6
:1006D000762BA9122808031DA9037708A9002D303D
:1006E000B100E7202908F700A9013030F7077708A3
:1006F000B100E7203008B4002F08B3002E08B20084
:100700002D08B100B801B701B6010A30B500F721D4
:100710007A08B0007908AF007808AE007708AD001D
:10072000AB0B142B8A110A12592C2508AC0029088E
:10073000AC06AC1FA02B03110310A51B0314D32B75
:100740002508AC002808AD002408AD020319AE2B23
:10075000AC1FD32B0308013A8300D32B2908AD002B
:100760002508AD020319BA2BAC1FD32B0308013A9D
:100770008300D32B2A08AD002608AD020319C62B2F
:10078000AC1FD32B0308013A8300D32B2B08AD00F9
:100790002708AD020319D22BAC1FD32B0308013A53
:1007A0008300D32B03100034840183131F3083058F
:1007B00083161F149F141F159F1107309C001F10D4
:1007C0009F141F159F151F1383121F179F17831642
:1007D0009F1783121F140830F700F71DF82B0730FE
:1007E00081018130840083130008C0390F388000F4
:1007F0006400813084000008C03977048000003034
:10080000F8001F08C73978049F00AB200530B200FC
:100810000130B300D520A40124080C20A40AF7005D
:10082000B100E7200B302402031D0C2C0230A40081
:10083000AF30B2005020A40B182CAB201F151F198D
:100840001F2C1E08FA0083161E088312A4001E081F
:10085000A5000C297708A4007808A5007908A6004F
:100860007A08A700AB007908AA007808A9007708E1
:10087000A800AF01AE01AD018030AC002B297A0891
:10088000A3007908A2007808A1007708A00005302D
:10089000B2000130B300D520893084002308A700BE
:1008A0002208A6002108A5002008A4000230A80004
:1008B000392A0E30B2000130B300D520A40124083B
:1008C0001C20A40AF700B100E72006302402031D13
:1008D0005F2CC830B20050202308A7002208A600D1
:1008E0002108A5002008A400AB01AA017A30A900C4
:1008F0008730A800952303187F2C031DB22CA70175
:10090000A6010C30A5008430A4002308AB00220807
:10091000AA002108A9002008A80095230318922CFA
:10092000031DB22C831685108312851483160511BE
:100930008312051583168511831285110530B200C7
:100940000230B300D520A40124082720A40AF70010
:10095000B100E7200F302402031DA42CC830B200E0
:100960005020D12C83168510831285108316051113
:100970008312051183168511831285150530B20087
:100980000230B300D520A40124083B20A40AF700BC
:10099000B100E72010302402031DC42CC830B2007F
:0609A00050201E2C630034
:02400E00733FFE
:00000001FF
;PIC16F877A
