:1000000000308A008D2800000A108A100A11820729
:10001000203448346F346C34613420346D3475349A
:100020006E3464346F3420340D3400340A108A1076
:100030000A118207453473347434653420346534CE
:10004000733420346D34693420347034723469343C
:100050006D34653472342034703472346F346734E4
:10006000723461346D3461342034643465347334F3
:100070006434653420346C3461342034763469342B
:1000800072347434753461346C34203474346534AF
:1000900072346D3469346E3461346C3420345834C5
:1000A0004434003420102008831687008312071080
:1000B0000830F8005B280000F8176C28F813A20C31
:1000C00003180714031C071078176C287813F80B13
:1000D0005F286A28000007141C308400840B6E28F7
:1000E0007128F81B5E28781B6628003422308400B3
:1000F0008313000803198A280130F800F701F70B71
:100100007F28F80B7E284A30F700F70B85288828CF
:10011000800B7C288A110A12B128840183131F30B6
:100120008305201020088316870083120714831686
:100130001F149F141F159F1107309C00FF3083125E
:10014000A000A10121080420A10AF700A20052206A
:100150000D302102031DA2280830A100FA30A200B0
:100160007628A10BAE28A10121081620A10AF700CC
:0E017000A200522037302102031DB428630084
:02400E00733FFE
:00000001FF
;PIC16F877A
