:1000000000308A005E2B00000A108A100A11820755
:1000100053346534F1346F347234203475347334AE
:1000200075346134723469346F3420346434693423
:10003000673469347434653420347334753420344F
:100040007034723469346D346534723420344E3413
:1000500075346D34653472346F340D3400340A10E5
:100060008A100A11820745346C342034703472349B
:1000700069346D346534723420346E3475346D34C3
:10008000653472346F342034653473343A34203438
:1000900025344C3464340D3400340A108A100A11AB
:1000A000820753346534F1346F347234203475343C
:1000B000733475346134723469346F342034643489
:1000C0006934673469347434653420347334753476
:1000D000203473346534673475346E3464346F346B
:1000E00020344E3475346D34653472346F340D34CD
:1000F00000340A108A100A11820745346C34203407
:1001000073346534673475346E3464346F3420343A
:100110006E3475346D34653472346F342034653424
:1001200073343A34203425344C3464340D34003480
:100130000A108A100A11820745346C342034723454
:100140006534733475347434613464346F342034FA
:100150006434653420346C34613420345334753461
:100160006D3461342034653473343A3420342534AA
:100170004C3464340D3400340A108A100A1182079A
:1001800045346C34203472346534733475347434CB
:10019000613464346F3420346434653420346C3416
:1001A000613420345234653473347434613420340F
:1001B000653473343A34203425344C3464340D348B
:1001C00000340A108A100A11E83E03188A0A8200D5
:1001D00045346C342034723465347334753474347B
:1001E000613464346F3420346434653420346C34C6
:1001F000613420344D3475346C3474346934703463
:100200006C34693463346134633469346F346E340C
:100210002034653473343A34203425344C34643417
:100220000D3400340A148A100A11820745346C34E4
:100230002034723465347334753474346134643406
:100240006F3420346434653420346C3461342034A9
:100250004434693476346934733469346F346E34B9
:100260002034653473343A34203425344C346434C7
:100270000D34003483160610831206100830F8007F
:1002800041290000F8175229F813C80C0318061466
:10029000031C0610781752297813F80B45295029AA
:1002A000000006141C308400840B54295729F81BC5
:1002B0004429781B4C29003483160615831206192D
:1002C0005F290830F700BE01F7177429F713742966
:1002D000031006190314BE0C771774297713F70B54
:1002E00068293E08F80080291C30F71B0730F80009
:1002F000F80B78290000F71B6629771B6E296829FF
:1003000000341030CA00F701FA01C70CC60C031CF8
:100310008F294808F7070318FA0A4908FA07FA0C60
:10032000F70CF90CF80CCA0B85290034C401C20182
:100330000A30C300C101C0013E083F04031DA429C7
:100340000030F800F9009D2A4408C40A3E078400E2
:1003500083133F1883170008C50045082D3C031D73
:10036000BD290130C2004408C40A3E07840083133B
:100370003F1883170008C500CA2945082B3C031DF8
:10038000CA294408C40A3E07840083133F18831710
:100390000008C50045082F3C03188E2A4508393C43
:1003A000031C8E2A4508303C031DF62944083E07ED
:1003B000840083133F1883170008783C0319EA2947
:1003C00044083E07840083133F1883170008583CF5
:1003D000031DF6291030C300C40A4408C40A3E07AE
:1003E000840083133F1883170008C50043080A3CA4
:1003F000031D1D2A45082F3C03181C2A4508393CBB
:10040000031C1C2AC7010A30C6004108C900400865
:10041000C8008121303045027807C0007908C1004A
:100420000318C10A4408C40A3E07840083133F1816
:1004300083170008C500FA298E2A4308103C031DC3
:100440008E2A4508603C03182C2A45087A3C031C78
:100450002C2A4508DF392D2A4508C50045082F3CC0
:100460000318362A4508393C03183E2A4508403C03
:1004700003188E2A4508463C031C8E2A45082F3C4B
:1004800003185F2A4508393C031C5F2A400DC6004B
:10049000410DC700C60DC70DC60DC70DC60DC70D52
:1004A000F030C605303045024607F8004708FA002C
:1004B0000318FA0A7808C0007A08C100782A400DAB
:1004C000C600410DC700C60DC70DC60DC70DC60D30
:1004D000C70DF030C605413045020A3E4607F80018
:1004E0004708FA000318FA0A7808C0007A08C10021
:1004F0004408C40A3E07840083133F18831700088A
:10050000C500603C03188B2A45087A3C031C8B2AE3
:100510004508DF398C2A4508C5002E2A43080A3CC5
:10052000031D992A420B992AC009C109C00A03195F
:10053000C10A4008F8004108F9000034C701040866
:10054000C6004710831B4714C01FAE2AC617461E9D
:10055000C60ABF09C009BF0A0319C00A400EF03815
:10056000C200C207E23EC300323EC50040080F3958
:10057000C307C307C507E93EC400C407C4073F0E4D
:100580000F39C407C507C40DC50DC509C50D3F0802
:100590000F39C507C20D0730C1000A30C507C403B3
:1005A000031CCE2AC407C303031CD22AC307C203F9
:1005B000031CD62AC207C103031CDA2A4130840077
:1005C000831307304605461384034605031DEF2AAF
:1005D000461A840A461AEF2A2030F7000C2B8407AB
:1005E00045300402031946170008F700031D002BCD
:1005F000461B002B461A1A2BC619002B20300B2B3A
:10060000C61F082B2D30F70084034613C6130C2B8E
:10061000C61546123030F707C0010408BF0040106D
:10062000831B40147708C8003A213F0884008313D5
:1006300040188317840A461FF02A00343F084106F9
:100640008039C300BF1F292BBE09BF09BE0A031989
:10065000BF0AC11F302BC009C109C00A0319C10A52
:10066000F801F901F701FA014108031D3A2B40088E
:100670000319542B1030C2000310BE0DBF0DF70D2F
:10068000FA0D41087A02031D472B40087702031C2C
:10069000502B4008F702031CFA034108FA02031426
:1006A000F80DF90DC20B3C2BC31F5B2BF809F909A0
:1006B000F80A0319F90A8A110A12022C8401831319
:1006C0001F308305831606108312061483161F1429
:1006D0009F141F159F1107309C008312A001A101D8
:1006E000BE013E080420BE0AF700C8003A212630A9
:1006F0003E02031D712B2630840083138403840A79
:100700005C21780880000D300002031D7F2B8001E2
:10071000BF012630BE0096217908B3007808B200E8
:10072000BE013E082F20BE0AF700C8003A2115304E
:100730003E02031D912B103084003308C0003208A4
:10074000BF009E220D30C8003A21BE013E084D2058
:10075000BE0AF700C8003A2127303E02031DA62B2F
:100760002C30840083138403840A5C217808800081
:100770000D300002031DB42B8001BF012C30BE00E0
:1007800096217908B5007808B400BE013E087920AA
:10079000BE0AF700C8003A2116303E02031DC62BE0
:1007A000103084003508C0003408BF009E220D3090
:1007B000C8003A2134083207B6003308B7003508BC
:1007C0000318350FB70734083202B8003308B900F0
:1007D0003508031C350FB9023308C7003208C600BC
:1007E0003508C9003408C80081217908BB007808A1
:1007F000BA003308BF003208BE003508C100340813
:10080000C0001E2B7908BD007808BC00BE013E0860
:100810009820BE0AF700C8003A211B303E02031D93
:10082000072C103084003708C0003608BF009E2215
:100830000D30C8003A21BE013E08BC20BE0AF700B8
:10084000C8003A211C303E02031D1C2C10308400CD
:100850003908C0003808BF009E220D30C8003A2178
:10086000BE013E08E120BE0AF700C8003A2125304B
:100870003E02031D312C103084003B08C0003A08B2
:10088000BF009E220D30C8003A21BE013E08122151
:10089000BE0AF700C8003A211F303E02031D462C55
:1008A000103084003D08C0003C08BF009E220D307F
:0608B000C8003A216300BC
:02400E00733FFE
:00000001FF
;PIC16F877A
