:1000000000308A0004280000840183131F30830518
:1000100083161F149F141F159F1107309C00FF307B
:100020008312A000831606148312061C4728201092
:1000300020088316870083120714A0102008831657
:1000400087008312871420112008831687008312EB
:100050000715A01120088316870083128715201228
:1000600020088316870083120716A0122008831623
:1000700087008312871620132008831687008312B7
:100080000717A0132008831687008312871783168B
:100090000614831206187C28201020088316870077
:1000A00083120710A0102008831687008312871080
:1000B000201120088316870083120711A011200841
:1000C0008316870083128711201220088316870069
:1000D00083120712A012200883168700831287124A
:1000E000201320088316870083120713A01320080B
:0C00F00083168700831287131228630018
:02400E00733FFE
:00000001FF
;PIC16F877A
