:1000000000308A00102900000A108A100A118207A5
:1000100028340C34013406340A108A100A1182077D
:1000200049346E34643469346334613464346F3415
:10003000723420346434653420346E346934763458
:1000400065346C3400340A108A100A118207543463
:1000500061346E347134753465342034563461340F
:10006000633469346F3400340A108A100A1182072D
:10007000543461346E3471347534653420344D3405
:100080006534643469346F3400340A108A100A11FC
:100090008207543461346E347134753465342034DD
:1000A0004C346C3465346E346F3400342330840047
:1000B0008313000803196A280130F800F701F70BD1
:1000C0005F28F80B5E284A30F700F70B6528682890
:1000D000800B5C2800342A0EF039F7000F30080539
:1000E0007704880000000814752808100034881070
:1000F000F0308316880083120815000008140000F1
:100100000808080E0F39AA000810000008140000A3
:100110000808080E0F39A90008100030831688005F
:1001200083122A0EF700F030F70577082904F8004B
:100130007808A900A91B7828271C8810271888147C
:100140000000081100000810280EA9000F30A905B2
:100150002908AA006B2028080F39A900AA006B20E3
:1001600000340030831688008312881008110810AC
:100170000F30A30056200130A1002108033C031CCE
:10018000C9280330AA006B200530A3005620A10A1D
:10019000BD280230AA006B20A1012108033C031CEA
:1001A000DA2821080420A200A7012208A80077204D
:1001B000A10ACD28003422080C3A0319E628063A91
:1001C0000319EE28023A031904290929A70101306D
:1001D000A80077200230A30056200F290130A30089
:1001E0000230A400240BF528F8284030A500F92897
:1001F000A50101302302A50725088038A600A70124
:100200002608A80077200F29A7011030A800772022
:100210000F290130A7002208A80077200F290034F9
:10022000840183131F30830583161F149F141F1529
:100230009F1107309C008312B120A10121080C20DE
:10024000A10AF700A200DB2012302102031D1E29A3
:100250008316861183128611831606148312061CD8
:100260004429B120A10121082320A10AF700A200FE
:10027000DB200C302102031D33290430A100FA30A9
:10028000A3005620A10B3F29831686148312861CD7
:100290005C29B120A10121083420A10AF700A200A5
:1002A000DB200C302102031D4B290430A100FA3061
:1002B000A3005620A10B5729831606158312061D8D
:1002C0008629B120A10121084520A10AF700A2003A
:1002D000DB200C302102031D632983168611831253
:1002E00086156430A300562083168611831286116A
:1002F0006430A300562083168611831286150430BD
:10030000A100FA30A3005620A10B81291C2963000B
:02400E00733FFE
:00000001FF
;PIC16F877A
