:1000000000308A0019280000223084008313000881
:10001000031918280130F800F701F70B0D28F80B29
:100020000C284A30F700F70B13281628800B0A28F3
:100030000034840183131F3083051930831699001F
:10004000A630980090308312980083161F149F14D6
:100050001F159F1107309C00FF308312A0008316EC
:100060001F149F141F159F1183121F10831609124E
:1000700083129412A0122008831687008312201680
:100080002008831687008312A0112008831687009A
:100090000130831294000030831694000108C739A0
:1000A00008388100831290010030F800920000307F
:1000B0008316920007309C0005080330F700F70B09
:1000C0005F281C0883120D1383169D0106108312EE
:1000D00006140230A100FA30A2000420A10B6B2804
:1000E00083168610831286140230A100FA30A20013
:1000F0000420A10B76288316061183120615023000
:10010000A100FA30A2000420A10B812883168611D9
:10011000831286150230A100FA30A2000420A10B40
:100120008C2883160612831206160230A100FA30BC
:10013000A2000420A10B972883168612831286162C
:100140000230A100FA30A2000420A10BA2288316DD
:100150000613831206170230A100FA30A200042011
:10016000A10BAD2883168613831286170230A100D7
:10017000FA30A2000420A10BB8288316861383123C
:1001800086130230A100FA30A2000420A10BC3287C
:1001900083160613831206130230A100FA30A20060
:1001A0000420A10BCE2883168612831286120230F9
:1001B000A100FA30A2000420A10BD9288316061250
:1001C000831206120230A100FA30A2000420A10B13
:1001D000E42883168611831286110230A100FA30BA
:1001E000A2000420A10BEF2883160611831206112A
:1001F0000230A100FA30A2000420A10BFA288316D5
:100200008610831286100230A100FA30A20004206A
:10021000A10B052983160610831206100230A100D7
:10022000FA30A2000420A10B10298316662863006F
:02400E0038393F
:00000001FF
;PIC16F877A
